:1000000002308A004D2A00000A108A100A11820765
:1000100028340C34013406340A108A100A1182077D
:1000200000340C10F33466396510C4376739750035
:100030000C10F33466396510F9306E36E93900007A
:100040003430840083130008031934280130F80089
:10005000F701F70B2928F80B28284A30F700F70B8F
:100060002F283228800B262808003B0EF039F70095
:100070000F30060577048600000006143F2806109E
:1000800008000608F700060E0F39F800080083166E
:10009000061086100611831286100F30831606058F
:1000A000F038860083120615000006140000412077
:1000B0007808BB00061000000614000041207808F4
:1000C000BA0006100F3083160605860083123B0E19
:1000D000F700F030F70577083A04F8007808BA001E
:1000E000BA1B4D28381C86103818861400000611DB
:1000F00000000610390EBA000F30BA053A08BB00EE
:10010000352039080F39BA00BB00352008000F3000
:1001100083160605860006108610061183128610C7
:10012000061106100F30B40020200130AF002F0858
:10013000033C031CA3280330BB0035200530B4006A
:100140002020AF0A97280230BB0035200530B400CC
:100150002020AF012F08033C031CB7282F080420E0
:10016000B000B8013008B9004720AF0AAA288A11A8
:100170000A126C2A350BBD28C0284030B600C128B1
:10018000B60101303402B60736088038B700B8012E
:100190003708B900472008003308073A0319DA285E
:1001A0000B3A0319DF28063A0319E728023A031924
:1001B000ED28F2280130B400B500BA20F728B801C4
:1001C0000130B90047200230B4002020F728013068
:1001D000B4000230B500BA20F728B8011030B900D9
:1001E0004720F7280130B8003308B900472008003D
:1001F0002F08783A03192A29503A03193529403A29
:1002000003194029C03A03194B29B03A031956295A
:10021000403A03196129C03A03196C29903A03192D
:100220007729403A03198229C03A03198D29403AA7
:1002300003199829103A0319A329303A0319AE2952
:10024000103A0319B929403A0319C429803A03190D
:10025000C529D8293030B300CC20283027078400A6
:10026000831330308000A70AD8293130B300CC2066
:10027000283027078400831331308000A70AD8294B
:100280003230B300CC20283027078400831332306B
:100290008000A70AD8293330B300CC2028302707A4
:1002A0008400831333308000A70AD8293430B30088
:1002B000CC20283027078400831334308000A70A1D
:1002C000D8293530B300CC20283027078400831389
:1002D00035308000A70AD8293630B300CC2028302A
:1002E00027078400831336308000A70AD8293730C7
:1002F000B300CC20283027078400831337308000D8
:10030000A70AD8293830B300CC202830270784002A
:10031000831338308000A70AD8293930B300CC20A5
:10032000283027078400831339308000A70AD82992
:100330002F30B300CC2028302707840083132F30C0
:100340008000A70AD8292A30B300CC2028302707FC
:10035000840083132A308000A70AD8292D30B300E7
:10036000CC2028302707840083132D308000A70A73
:10037000D8292B30B300CC202830270784008313E2
:100380002B308000A70AD829D8290C30B300CC2004
:10039000B001B1012830840083133008840731088C
:1003A0000C20800000380319D829B10AB00ACA29E4
:1003B0008A110A127F2AAF01B0013008053C031CE4
:1003C000F62928303007840083130008B10021305B
:1003D00030078400831300083102031DF129AF0A9E
:1003E000F4290030F800FF29B00ADD292F08063C67
:1003F000031DFD290130F800FF290030F8008A11A3
:100400000A12862A0B08AF008B13831603178C176A
:100410000C140000000083120C087F390319492ACC
:100420000313B00003170D080313B10003170F08DF
:100430000313B2003008B300CC20310803178D003D
:100440000313320803178F0083168C170C14000057
:10045000000083120C0D0E0D7F390319492A031376
:10046000B00003170D080313B10003170F0803139F
:10047000B2003008B300CC20310803178D000313FD
:10048000320803178F008D0A03198F0A0313052AF8
:1004900003170313AF1B8B170800A001A7018316D6
:1004A0001F149F141F159F1183131F3083052A30BB
:1004B0008312A100A2003130A3003230A4003330F7
:1004C000A5003430A600FF30831688000030860077
:1004D00086018312860187282008063C0319852A95
:1004E000831688158312881D842AA00AFF3083167C
:1004F000880083120808AE002E08AF00F828831683
:100500008815831288197F2A6C2ADB29780B902A98
:10051000113003178D0000308F0003130222972A39
:10052000183003178D0000308F0003130222630080
:02400E00313F40
:00000001FF
;PIC16F877
;CRC=B8B1  CREATED="02-Haz-23 10:49"
